:020000040800F2
:1000000000000220C98F0008BD2B0008BF2B00088C
:10001000C12B0008C32B0008C52B000800000000FE
:10002000000000000000000000000000618C0008DB
:10003000C72B000800000000018D0008C92B000834
:100040001D9000081D9000081D9000081D900008DC
:100050001D9000081D9000081D9000081D900008CC
:100060001D9000081D9000081D9000081D900008BC
:100070001D9000081D9000081D9000081D900008AC
:100080001D9000081D9000081D9000081D9000089C
:100090001D9000081D9000081D9000081D9000088C
:1000A0001D9000081D9000081D9000081D9000087C
:1000B0001D9000081D9000081D9000081D9000086C
:1000C0001D9000081D9000081D9000081D9000085C
:1000D0001D9000081D9000081D9000081D9000084C
:1000E0001D9000081D900008000000001D900008F1
:1000F0001D9000081D9000081D9000081D9000082C
:100100001D9000081D9000081D9000081D9000081B
:100110001D9000081D9000081D9000081D9000080B
:100120001D9000081D9000081D9000081D900008FB
:100130001D9000081D9000081D9000081D900008EB
:1001400000000000000000000000000000000000AF
:100150001D9000081D9000081D9000081D900008CB
:100160001D9000081D9000081D9000081D900008BB
:100170001D9000081D9000081D9000081D900008AB
:100180001D9000081D9000081D9000081D9000089B
:100190001D9000081D9000081D9000081D9000088B
:1001A0001D9000081D9000081D9000081D9000087B
:1001B0001D9000081D9000081D9000081D9000086B
:1001C0001D9000081D9000081D9000081D9000085B
:1001D0001D9000081D9000081D9000081D9000084B
:1001E0001D9000081D9000081D9000081D9000083B
:1001F0001D9000081D9000081D9000081D9000082B
:100200001D9000081D9000081D9000081D9000081A
:100210001D9000081D9000081D9000081D9000080A
:100220001D9000081D900008E12B00080000000050
:100230001D9000081D900008000000001D9000089F
:100240001D9000081D9000081D9000081D900008DA
:100250001D9000081D9000081D9000081D900008CA
:100260001D9000081D9000081D9000081D900008BA
:100270001D9000081D9000081D900008000000005F
:100280001D9000081D9000081D900008000000004F
:08029000000000001D900008B1
:1002A0000348044B834202D0034B03B11847704705
:1002B0007800002078000020000000000548064972
:1002C0000B1AD90F01EBA301491002D0034B03B164
:1002D00018477047780000207800002000000000D8
:1002E00010B5064C237843B9FFF7DAFF044B13B17E
:1002F0000448AFF300800123237010BD7800002074
:10030000000000002090000808B5044B1BB1044910
:100310000448AFF30080BDE80840CFE700000000CC
:100320007C00002020900008014B1868704700BF37
:100330000000002070B50D4E0D4D761BB61006D096
:10034000002455F8043B01349847A642F9D1094EE0
:10035000094D761B08F064FEB61006D0002455F84F
:10036000043B01349847A642F9D170BDF8930008C8
:10037000F8930008FC930008F8930008844641EACB
:10038000000313F003036DD1403A41D351F8043B0D
:1003900040F8043B51F8043B40F8043B51F8043B5F
:1003A00040F8043B51F8043B40F8043B51F8043B4F
:1003B00040F8043B51F8043B40F8043B51F8043B3F
:1003C00040F8043B51F8043B40F8043B51F8043B2F
:1003D00040F8043B51F8043B40F8043B51F8043B1F
:1003E00040F8043B51F8043B40F8043B51F8043B0F
:1003F00040F8043B51F8043B40F8043B51F8043BFF
:1004000040F8043B51F8043B40F8043B403ABDD26D
:10041000303211D351F8043B40F8043B51F8043B0F
:1004200040F8043B51F8043B40F8043B51F8043BCE
:1004300040F8043B103AEDD20C3205D351F8043B9E
:1004400040F8043B043AF9D2043208D0D2071CBF6A
:1004500011F8013B00F8013B01D30B880380604693
:10046000704700BF082A13D38B078DD010F0030309
:100470008AD0C3F10403D21ADB071CBF11F8013B79
:1004800000F8013B80D331F8023B20F8023B7BE7C8
:10049000043AD9D3013A11F8013B00F8013BF9D2F3
:1004A0000B7803704B7843708B788370604670478D
:1004B000830730B548D0541E002A3FD0CAB2034645
:1004C00001E0013C3AD303F8012B9D07F9D1032C3D
:1004D0002DD9CDB245EA05250F2C45EA054536D97B
:1004E000A4F1100222F00F0C03F1200EE6444FEAB3
:1004F000121C03F1100242E9045542E90255103280
:100500007245F8D10CF1010214F00C0F03EB02124A
:1005100004F00F0C13D0ACF1040323F003030433F5
:10052000134442F8045B9342FBD10CF003042CB15A
:10053000CAB21C4403F8012B9C42FBD130BD644677
:100540001346002CF4D1F9E703461446BFE71A46D8
:10055000A446E0E70EB410B5044683B008B1836941
:100560005BB106ABA168059A0193204600F060FDDF
:1005700003B0BDE8104003B0704700F067FBF0E740
:100580000FB410B50A4B1C6882B00CB1A3695BB103
:1005900005ABA168049A0193204600F049FD02B022
:1005A000BDE8104004B07047204600F04FFBEFE775
:1005B000000000202DE9F0410E460746002833D008
:1005C00083697BB384682F4B9C4237D02E4B9C426F
:1005D0003FD02E4B9C4208BFFC68A3891B0731D536
:1005E00023697BB33578B0463DB934E023685A1CA3
:1005F00022601D7018F8015F6DB3A368013B002BEA
:10060000A360F3DAA669B34229462246384601DBE5
:100610000A2DEBD100F044F80130EBD14FF0FF3060
:10062000BDE8F08100F012FBBB69BC68002BCAD1A9
:10063000384600F00BFB134B9C42C7D17C68A38962
:100640001B07CDD42146384600F08EF80028C9D0CB
:10065000E4E7BC68C1E7A368013B002BA36009DAAB
:1006600022460A21384600F01BF80130D6D00A2075
:10067000BDE8F08123680A22591C21601A701046D7
:10068000BDE8F0818090000860900008409000086C
:10069000024B01461868FFF78DBF00BF0000002025
:1006A000F8B50D461446064608B1836943B3254B99
:1006B0009C422AD0244B9C4229D0244B9C4208BF08
:1006C000F468A389A269A2601A0722D5236903B33B
:1006D00022686169D31AEDB299422F4629DD0133B0
:1006E000A1680139A160511C2160157062699A42AC
:1006F00016D0A389DB0701D50A2D11D03846F8BDE5
:1007000000F0A4FA0F4B9C42D4D17468D9E7B468C6
:10071000D7E72146304600F027F838B92369D7E7F4
:100720002146304600F02CF90028E7D04FF0FF3783
:10073000E4E72146304600F023F90028F6D122688C
:100740000123CDE7809000086090000840900008E9
:1007500010B4044C03460A4620685DF8044B194661
:10076000FFF79EBF000000203C4B70B51D68064699
:100770000C460DB1AB69E3B1394B9C421FD0394BEC
:100780009C424DD0384B9C4208BFEC68B4F90C3009
:1007900018079AB219D5216911B312F001002FD0B0
:1007A0000020A06060694042A06100292ED0002096
:1007B00070BD284600F04AFA294B9C42DFD16C6894
:1007C000B4F90C3018079AB2E5D4D1063ED55207D9
:1007D00028D4216943F00803A3819AB20029DCD10F
:1007E00002F42070B0F5007FD7D02146304600F0EB
:1007F00091FAB4F90C3021699AB212F00100CFD10C
:10080000950758BF6069A0600029D0D1120658BF73
:100810000846CDD543F04003A3814FF0FF3070BDB3
:10082000AC68B3E7616B51B104F14402914204D06A
:10083000304600F0FDFAB4F90C3000226263216901
:100840000022C4E9001223F02403C3E7092243F085
:10085000400332604FF0FF30A38170BD00000020E4
:100860008090000860900008409000088B891A076B
:100870002DE9F0410C4680463FD44A68002A58DDF5
:10088000E66A002E52D00022D8F80050C8F80020A6
:1008900013F4805251D10123216A4046B047431CD2
:1008A0005ED0A389E66A5F0705D56368C01A636BEB
:1008B0000BB1236CC01A216A024600234046B047A0
:1008C000411C3CD1D8F80030002B38D01D2B01D072
:1008D000162B4DD123690022C4E90032616BC8F8A0
:1008E000005019B304F14403994202D0404600F08D
:1008F0009FFA00206063BDE8F0810E69B6B10D6813
:100900000E609A070CBF4B690023AD1B8B600BE098
:100910002B463246216AA76A4046B847B0F1000C20
:10092000A5EB0C05664413DD002DF1DC0020BDE8CD
:10093000F0810A6C002AA3DCF8E7606DB3E70023BE
:10094000636023692360A389DB04C7D56065C5E7BD
:10095000A38943F040034FF0FF30A381BDE8F0814D
:10096000D8F80030002B9CD01D2B06D0162B04D0BD
:10097000A38943F04003A381D9E7C8F80050D5E725
:1009800038B50B69BBB10D46044608B18369B3B1F4
:100990000D4B9D4211D00D4B9D4213D00C4B9D42EF
:1009A00008BFE568B5F90C302BB129462046BDE8F3
:1009B0003840FFF75BBF002038BD6568F2E700F004
:1009C00045F9E5E7A568EDE780900008609000082C
:1009D0004090000838B540B303690446E3B1174BB3
:1009E0001D680DB1AB69CBB1154B9C420FD0154BB7
:1009F0009C4221D0144B9C4208BFEC68B4F90C30E7
:100A000053B121462846BDE83840FFF72FBF6C6838
:100A1000B4F90C30002BF4D1002038BD284600F08A
:100A200015F9074B9C42E2D1F1E7084B08491868D9
:100A3000BDE8384000F04AB9AC68DFE700000020AC
:100A40008090000860900008409000083C900008EA
:100A50008109000800207047014900F037B900BF44
:100A6000810900080020704770B568224D1E02FB06
:100A700005F50E4605F1740100F03CFA044640B15C
:100A800000210C30C4E90016A06005F16802FFF7F0
:100A90000FFD204670BD00BF274B2DE9F0411E68B9
:100AA000B369074653B348364FF00408D6E901341A
:100AB000013B04D51EE05A1C04F168041AD0B4F9B5
:100AC0000C50013B002DF6D11C4B6566C4E9005566
:100AD000C4E90253C4E90455A5610822294604F17A
:100AE0005C00FFF7E5FCC4E90D55C4E9125520464A
:100AF000BDE8F08135682DB12E46D7E7304600F0CD
:100B00001FF8D0E74FF4D671384600F0F3F90446E9
:100B100068B10560C0F804800C302946A060254605
:100B20004FF4D072FFF7C4FC34602E46BEE70C23AE
:100B300030603B60DBE700BF3C9000080100FFFF36
:100B40002DE9F84F344B35491A68816290424FF0D5
:100B50000003C0E91233036504BF01238361054626
:100B6000FFF79AFF68602846FFF796FFA8602846BF
:100B7000FFF792FF6F68E86000240423C7E902438F
:100B800008222146C7E90044C7E904447C66BC61E9
:100B900007F15C00FFF78CFCDFF88CB0AE68DFF883
:100BA0008CA0DFF88C90DFF88C801D4BC7F828A054
:100BB000C7E9087BC7F82C90C7F830800822F3609B
:100BC000C6E90044C6E904447466B460B4612146D1
:100BD00006F15C00FFF76CFCC6E9086BC6E90AA9E0
:100BE000C6F83080EE680F4BF360C6E90044C6E9F2
:100BF00004447466B460B4612146082206F15C00C6
:100C0000FFF756FC0123C6E9086BC6E90B98C6F846
:100C100028A0AB61BDE8F88F3C900008590A000895
:100C20000900010012000200D1160008F9160008A0
:100C30003917000859170008024B0349186800F0DB
:100C400045B800BF3C90000881090008836903B9DA
:100C500076E77047704700BF704700BF704700BF1E
:100C6000704700BF024B0349186800F00FB800BF7F
:100C700000000020550A0008024B0349186800F0E4
:100C800005B800BF00000020650A00082DE9F0410A
:100C9000884600F148070026D7E90154013D0FD4EA
:100CA000A389012B05F1FF3506D9B4F90E300133C4
:100CB000204601D0C04706436B1C04F16804EFD105
:100CC0003F68002FE8D13046BDE8F0812DE9F843B8
:100CD0000746884600F148064FF00009D6E901545E
:100CE000013D11D4A389012B05F1FF3508D9B4F9D1
:100CF0000E300133214603D03846C04749EA000987
:100D00006B1C04F16804EDD13668002EE6D148462C
:100D1000BDE8F883F0B58B890C46990797B007D5E5
:100D200004F147030122C4E90432236017B0F0BD87
:100D3000B4F90E10002905462DDB6A4600F038FD97
:100D4000002827DB019E06F470464FF48067A6F565
:100D50000056B6FA86F639462846760900F0CAF8F3
:100D600030B3A3891A4AAA6243F08003C4E9040796
:100D7000A3812060002ED9D0B4F90E10284600F0CF
:100D8000A5FE0028D2D0A38923F0030343F001037A
:100D9000A381CBE7A38913F0800F14BF40274FF442
:100DA000806739462846002600F0A4F80028D8D1EC
:100DB000B4F90C309A05B9D423F0030304F14702C7
:100DC00043F002030121C4E90421A3812260ADE7BD
:100DD000590A000870B50C46B1F90E10002996B0FA
:100DE00016461D4613DB6A4600F0E2FC00280EDBC7
:100DF000019901F47041A1F50051B1FA81F14FF46C
:100E00008063490900202960336016B070BDB4F9D1
:100E10000C3000221B062A6004D5402300203360DA
:100E200016B070BD4FF480630020336016B070BD03
:100E3000002958D030B551F8043C83B0002BA1F103
:100E40000404B8BFE418019000F036FF284A019866
:100E5000136833B1A3420DD9216804EB010C63453B
:100E60002FD06360146003B0BDE8304000F026BFAF
:100E7000A34210D81A465B68002BF9D1116802EB27
:100E8000010C644519D02FD36360546003B0BDE8F2
:100E9000304000F013BF116802EB010CA44516D0DE
:100EA00022D8216804EB010C6345EDD11D685B6815
:100EB0002944C4E900135460D5E72368194411603C
:100EC000D1E71D685B682944C4E90013CAE72468B8
:100ED00021445418A3421160C5D1D3E900432144F1
:100EE000C2E90013BFE770470C230360BBE700BFF4
:100EF00094000020F8B5CD1C25F0030508350C2D15
:100F000038BF0C25002D064623DBA94221D8254FEA
:100F100000F0D2FE3A6822B3144603E0636822462A
:100F2000FBB11C4623685B1BF8D40B2B15D86368F8
:100F300094420CBF3B605360304600F0BFFE04F1AA
:100F40000B00231D20F00700C21A01D01B1AA3506A
:100F5000F8BD0C2333600020F8BD23601C442560DD
:100F6000EAE77968C9B12946304600F09FFB431C87
:100F70000CD0C41C24F00304A04205D0211A304632
:100F800000F094FB013001D02560D5E70C233046FA
:100F9000336000F093FE0020F8BD304600F086FB81
:100FA0007860E0E7940000209368013B002B936099
:100FB00011DA10B49469A34209DB0A2907D0136837
:100FC000581C1060197008465DF8044B70475DF8B6
:100FD000044BFFF765BB1368581C10601970084676
:100FE000704700BF9BB1F8B5134406460F46541E28
:100FF0005D1E01E0AC4208D014F8011F3A463046AD
:10100000FFF7D2FF431CF5D1F8BD0020F8BD00204A
:10101000704700BF936810B5144613B95360184663
:1010200010BD00F0DBFB0023C4E9013310BD00BF9D
:101030002DE9F04F88469FB015461C46814618B1F1
:101040008369002B00F0A280924B984500F0A480A9
:10105000914B984500F0B180904B984508BFD9F866
:101060000C80B8F80C30180740F19D80D8F810308B
:10107000002B00F0988000230B932978884E05946C
:1010800020238DF8313030238DF8323001270029AC
:1010900074D02C460B4604E014F8013F002B00F0FE
:1010A0008F80252BF8D1B4EB050B40F08C80237892
:1010B000002B63D000234FF0FF32CDE907230693C6
:1010C00009938DF85B301C93013404E0069A07FA0B
:1010D00003F3134306932546052214F8011B3046FB
:1010E00000F01EFD831B0028F0D1069BD90644BFEB
:1010F00020228DF85B2029781A0744BF2B228DF817
:101100005B202A2970D1059A1168043200290592C2
:10111000C0F29B800991697801352E2976D0614C07
:101120000322204600F0FCFC38B1069B001B402443
:1011300004FA00F003430693013515F8011B5A48E1
:101140008DF83010062200F0EBFC002800F08380C0
:10115000564B002B6DD005AA0092554B424606A96E
:101160004846AFF300800390039B013306D00B9BEE
:10117000039A297813440B9300298AD1B8F80C30CC
:101180005B0617D40B981FB0BDE8F08FFFF75EFD2C
:10119000404B98457FF45CAFD9F80480B8F80C3028
:1011A00018073FF563AF41464846FFF7DDFA0028D0
:1011B0003FF461AF4FF0FF30E5E7D9F8088050E722
:1011C000B4EB050BDAD0AA46C5F1010503E093455F
:1011D00036D91AF8011F42464846FFF7E5FE0130AE
:1011E00005EB0A02F3D1C9E7A1F13002092A94D82C
:1011F000099B15F8011F03EB830302EB4303A1F1E5
:101200003002092AF5D92E29099388D169782A292B
:101210002BD1059BA9781A6807920433002A05F19F
:1012200002000593B8BF4FF0FF330546B8BF0793E0
:1012300075E7059B073323F007030833059396E70B
:101240000B9A23785A440B9232E7494243F0020347
:10125000099106935FE705AA0092154B424606A93D
:10126000484600F0CBF803907EE7A1F1300200235E
:10127000092A079305F101053FF651AF15F8011F43
:1012800003EB830302EB4303A1F13002092AF5D9F2
:10129000079344E7809000086090000840900008A1
:1012A000BC930008C4930008C89300080000000025
:1012B000E50F000810B4054C8446134620685DF81D
:1012C000044B0A466146FFF7B3BE00BF0000002092
:1012D0002DE9F84F92461F460A698B68DDF8289081
:1012E0009A42B8BF1A46CAF8002091F843300C461B
:1012F000064613B10132CAF80020226891065DD576
:10130000DAF800300233CAF80030226812F0060F13
:1013100011461ED1E168CB1A002BD8BF114618DD4B
:1013200004F1190B4FF0000805E0E568DAF8003029
:10133000ED1A45450CDD01235A4639463046C8476B
:10134000013008F10108F0D14FF0FF30BDE8F88F0F
:10135000216894F84330003B18BF01238A060AD560
:10136000E1185A1C302081F84300224494F84510BB
:1013700082F84310023304F1430239463046C8472D
:101380000130E1D0236803F00603042B1DD0A368CD
:101390002269934225DD4FF000089B1A98441A34C5
:1013A000002501E045451CDA012322463946304636
:1013B000C847013005F10105F4D1C5E712F0060F69
:1013C00012D0003B18BF0123D5E7DAF80030E168FE
:1013D0002269C91AA368934221EAE178DDDC002979
:1013E000DDDC0020BDE8F88FE168DAF80030CB1AC8
:1013F000002BD8BF114693DCABE700BF2DE9F047C7
:101400000C4684B09046227E0C990746994604F11A
:101410004300002A33D0A2F15803DDB2202D67D853
:10142000202B65D8DFE813F0DE0064006400640060
:101430006400640064006400640064006400A3004D
:101440006E0064006400640064006E006400640068
:101450006400640021007F00C00064006400AE00EE
:1014600064007F0064006400E50023681A0640F110
:1014700004810B6862691D1D0D601B681A600023E2
:1014800082462361CDF80090434603AA21463846A0
:10149000FFF71EFF013020D02369524641463846EF
:1014A000C847013019D02368E068039E9B0719D50F
:1014B000831B002B16DD04F1190A002504E0E06807
:1014C000039E831BAB420DDD012352464146384645
:1014D000C847013005F10105F1D14FF0FF3004B0EC
:1014E000BDE8F087B042B8BF304604B0BDE8F08731
:1014F000012384F84220236104F1420A002384F886
:101500004330BFE723681A0602D45E0600F1C180AB
:101510000D682A6804350D601546002A6BDBDFF87C
:1015200084C10A2610E023681D0640F19C800B68E8
:101530001D1D0D601D68DFF86CC16F2A0CBF0826E9
:101540000A26002384F843306268A260002A7FDB09
:10155000236823F004032360002D5BD1002A79D196
:101560008246082E65D0A0EB0A0020618AE70B684E
:101570000122186804330B6004F1420A84F8420027
:101580002261BBE70B686268181D0860D3F800A0F1
:101590000021504600F0C4FA002800F08180A0EB42
:1015A0000A0060602061A9E7236843F020032360FC
:1015B0007822DFF8F4C084F845200A68151D0D6014
:1015C0001D0643D4590641D51588DE0744BF43F0B4
:1015D00020032360002D44D1236823F020032360DF
:1015E0001026AEE7582384F84530DFF8B8C02368EA
:1015F000E3E72368DCE76268A2602D21002AC5F1D9
:10160000000584F8431002DB23F004032360DFF8B5
:1016100094C00A268246B5FBF6F306FB13512A4610
:101620001CF801100AF8011DB2421D46F3D2082E23
:1016300099D12368D90796D5626823699A4292DCCA
:1016400030230AF8013C0AF1FF3A8CE71568BCE741
:10165000002DDFD19CF8003084F8423004F1420ABA
:101660007FE710266DE713F0400F0B6803F10405C8
:101670000D600CBF1D681D885DE713F0400F0B68FF
:10168000626903F104050D601B6814BF1A801A60BB
:10169000F5E60A68B2F9005004320A602A463CE7CF
:1016A00060687FE7D0930008E493000838B5074DE1
:1016B0000022044608462A6007F038FC431C00D08C
:1016C00038BD2B68002BFBD0236038BD9C00002068
:1016D00010B50C46B1F90E1000F01AFB002803DB20
:1016E000636D0344636510BDA38923F48053A38114
:1016F00010BD00BF002070472DE9F0410C46B1F944
:101700000C101F46CB05054616460BD421F480511C
:10171000A1813B46B4F90E1032462846BDE8F0419F
:1017200000F01EB8B4F90E100223002200F0E0F918
:10173000B4F90C10EAE700BF10B50C46B1F90E1071
:1017400000F0D6F9A389421C0EBF23F4805343F462
:1017500080536065A38110BDB1F90E1000F016B87A
:1017600038B50C46084D8446114620461A460023DB
:101770002B60644607F00EFC431C00D038BD2B687C
:10178000002BFBD0236038BD9C00002038B5074DEE
:101790000022044608462A6007F00AFC431C00D0D9
:1017A00038BD2B68002BFBD0236038BD9C00002087
:1017B00070B50C46084D03460026204611461C46CF
:1017C0002E6007F0F8FB431C00D070BD2B68002B87
:1017D000FBD0236070BD00BF9C0000209368002BED
:1017E00000F085802DE9F04FB1F90C300C46190757
:1017F000804683B0174698B225D523691BB310F0F5
:1018000002033D682DD04FF0000ADFF8BCB2564607
:10181000B9465E453346524628BF5B464046002ED9
:1018200052D0216AA76AB847002856DDD9F8083097
:101830001B1A8244361AC9F80830002BE9D100205F
:1018400003B0BDE8F08F21464046FEF78DFF00282B
:1018500040F03681B4F90C303D6898B210F00203C4
:10186000D1D110F0010944D14E46009746B382050C
:10187000D4F808B040F18380B3455A4600F2B280F4
:1018800010F4906F40F0BF8020680192494600F04C
:1018900097F9A368019AA3EB0B012368A160134495
:1018A000B24623600026009B9868A0EB0A00D14452
:1018B00098600028C3D0B4F90C0080B2002ED6D1B5
:1018C000D5E900960835D1E7D5E900A60835A0E7A7
:1018D00021464046FFF754F880B3B4F90C3043F08A
:1018E00040034FF0FF30A38103B0BDE8F08F00202C
:1018F00070471E46AA46994618461D46009756B39D
:1019000088B34A46D4E904132068B24228BF32465D
:10191000884205D9A16803EB010B5A4500F3A68064
:10192000934263DC216AA76A2A464046B847B0F171
:10193000000BD2DDB9EB0B09CAD00120009A9368E5
:10194000A3EB0B035D44A6EB0B069360002B3FF467
:1019500076AF002ED4D10AF1080353E902569A4615
:101960000833002EF9D032460A21284600F0D8F874
:10197000002800F09C800130A0EB0509C1E7206839
:101980002369984216D86369B34213D86FF00042B6
:10199000B24228BF3246216A92FBF3F2A76A02FBE9
:1019A00003F340464A46B847B0F1000A95DDA6EB7E
:1019B0000A0678E7B345DA4628BFB246524649469A
:1019C00000F0FEF8A3682268A3EB0A035244A36068
:1019D0002260002BEBD121464046FEF7D1FF0028C4
:1019E000E5D07AE72068B34632464EE729460192B1
:1019F00000F0E6F8019AA3689B1AA36023681344D9
:101A00002360934696E723682169A3EB010B636982
:101A100003EB430A0AEBDA7A0BF101034FEA6A0A95
:101A200033445345524684BF9A46524643052CD50B
:101A300011464046FFF75EFA00283BD05A4621691E
:101A40000190FEF79BFCA289019B22F4906242F078
:101A50008002A28103EB0B002361AAEB0B03C4F805
:101A600014A0A3602060B34632460EE729465A46CA
:101A700000F0A6F823685B44236021464046FEF749
:101A80007FFF00283FF456AF27E7404600F018F9E3
:101A900003460028DED121694046FFF7C9F9B4F9B1
:101AA0000C300C2223F08003C8F8002017E7721CCA
:101AB000914627E70C22B4F90C30C8F800200EE755
:101AC0004FF0FF30BCE600BF00FCFF7F38B5074D8C
:101AD0000022044608462A6007F072FA431C00D030
:101AE00038BD2B68002BFBD0236038BD9C00002044
:101AF00038B50C46084D8446114620461A46002348
:101B00002B60644607F05EFA431C00D038BD2B689A
:101B1000002BFBD0236038BD9C000020000000009B
:101B200001F0FF01102A2BDB10F0070F08D010F88E
:101B3000013B013A8B422DD010F0070F42B3F6D192
:101B4000F0B441EA012141EA014122F007047FF0AB
:101B500000070023F0E80256083C85EA010586EA02
:101B6000010685FA47F5A3FA87F586FA47F6A5FA3E
:101B700087F68EB9EED1F0BC01F0FF0102F007024A
:101B800032B110F8013B013A83EA010313B1F8D1F5
:101B90000020704701387047002D06BF35460338D6
:101BA000073815F0010F07D1013015F4807F02BF0F
:101BB000013015F4C03F0130F0BC0138704700BF60
:101BC00088420DD98B1883420AD900EB020CBAB1B6
:101BD000624613F801CD02F801CD9942F9D1704760
:101BE0000F2A0ED8034602F1FF3C4AB10CF1010C5A
:101BF000013B8C4411F8012B03F8012F6145F9D109
:101C0000704740EA01039B0750D1A2F1100370B561
:101C100001F1200C23F00F0501F1100E00F110046A
:101C2000AC441B095EF8105C44F8105C5EF80C5C78
:101C300044F80C5C5EF8085C44F8085C5EF8045CF0
:101C400044F8045C0EF1100EE64504F11004E9D1ED
:101C5000013312F00C0F01EB031102F00F0400EB43
:101C6000031327D0043C24F003064FEA940C1E44CF
:101C70001C1F8E465EF8045B44F8045FB442F9D141
:101C80000CF1010402F0030203EB840301EB840175
:101C900002F1FF3C4AB10CF1010C013B8C4411F8FC
:101CA000012B03F8012F6145F9D170BD02F1FF3C12
:101CB00003469BE72246EBE7704700BF704700BF33
:101CC000F8B51446F9B1CAB106460D4600F036F82B
:101CD000A04202D32F463846F8BD21463046FFF7D2
:101CE00009F907460028F6D022462946FEF746FBAA
:101CF00030462946FFF79CF83846F8BD2746FFF7DF
:101D000097F83846F8BDBDE8F8401146FFF7F2B83D
:101D100038B50C46084D8446114620461A46002325
:101D20002B60644607F026F9431C00D038BD2B68B1
:101D3000002BFBD0236038BD9C00002051F8040C20
:101D40000028A0F10400BCBF0B58C018704700BFAA
:101D500030B585B00024009401940294039401F0FE
:101D600067F801258DF800508DF801404FF01043C1
:101D700001931F238DF8083087238DF809308DF8E3
:101D80000A408DF80B408DF80C508DF80D408DF801
:101D90000E508DF80F50684601F068F88DF801502C
:101DA00017238DF808308DF809408DF80C406846EF
:101DB00001F05CF8042001F049F805B030BD0000E6
:101DC00008B5104B1B7883420FD00E4B18700228B9
:101DD0000CD0032810D0012802D000F009FB04E049
:101DE00001220021084600F0F7FA08BD0022012177
:101DF000104600F0F1FAF8E700221146012000F049
:101E0000EBFAF2E7A000002008B500F00BFF30B9B4
:101E100000F078FE38B90020FFF7D2FF08BD01209E
:101E2000FFF7CEFFFAE70220FFF7CAFFF6E7000050
:101E300010B582B0FFF7E8FF00F0F4FE002800F0D4
:101E4000BE806D4B1B7833B16B4B1B78002B40F081
:101E5000C18002B010BD6949694B186800F0EAFE04
:101E6000654B01221A7003F04DFE664B18604FF06F
:101E70006043D3F8803E13F0010F06D04FF060436B
:101E8000D3F8003E13F0010F5BD14FF06043D3F85D
:101E9000803E13F0010F06D04FF06043D3F8003EB0
:101EA00013F0010F58D14FF06043D3F8803E13F088
:101EB000010F06D04FF06043D3F8003E13F0010F3E
:101EC00055D14FF06043D3F8803E13F0010F06D098
:101ED0004FF06043D3F8003E13F0010F52D14FF0A2
:101EE0006043D3F8803E13F0010F06D04FF06043FB
:101EF000D3F8003E13F0010F4FD1434800F0F3FE3A
:101F000000F006FE0146002855D100238DF805306B
:101F10008DF806308DF807300DF107020DF106013E
:101F20000DF1050000F03CFD002840D19DF8073080
:101F30009DF806209DF805103448FEF721FB83E745
:101F400000BF4FF060431B68002BF9D04FF0604397
:101F500049221A7099E700BF4FF060431B68002BBD
:101F6000F9D04FF0604354221A709CE700BF4FF045
:101F700060431B68002BF9D04FF060434D221A706C
:101F80009FE700BF4FF060431B68002BF9D04FF074
:101F900060433A221A70A2E700BF4FF060431B680B
:101FA000002BF9D04FF0604320221A70A5E71848A3
:101FB000FEF76EFB48E71748FEF7E2FA44E70E4BE0
:101FC0001B78002B3FF440AF00230B4A13700D4ADF
:101FD000136039E703F096FD04460A4B1B68C31AE9
:101FE000B3F57A7FFFF435AF01460B48FEF7C8FA28
:101FF000044B1C602DE700BFA800002080841E0059
:102000006C000020A4000020A0900008B090000800
:10201000D0900008E89000080891000872B6FEE72A
:1020200000B59DB04C22002109A8FEF741FA2022FC
:10203000002101A8FEF73CFA022003F0CBFC0023AC
:102040000093254B9A6942F440429A619B6903F4DC
:1020500040430093214BDA6A42F00102DA62DB6A04
:1020600003F001030093009B1B4B9B6913F4005F7B
:10207000FAD0012209924FF480330A93022312937B
:10208000139314923C2215921693179318930C23D2
:10209000199300231A931B9309A800F077FFB8B98E
:1020A0003F23019303230293002303930823049304
:1020B0004023059306934FF480620792089304210E
:1020C0000DEB010001F09CFC20B91DB05DF804FB94
:1020D000FFF7A4FFFFF7A2FF0048025800040058D2
:1020E00010B5FFF735FE314B5B6913F4003F13D198
:1020F000BFF34F8FBFF36F8F2C4B0022C3F85022DA
:10210000BFF34F8FBFF36F8F5A6942F400325A61A9
:10211000BFF34F8FBFF36F8F244B5B6913F4803F86
:1021200027D1224B0022C3F88420BFF34F8FD3F86E
:102130008040C4F34E3000E01846C4F3C90243F6B1
:10214000E07303EA401343EA82731849C1F860322E
:102150001346013A002BF2D1431E0028ECD1BFF305
:102160004F8F4B6943F480334B61BFF34F8FBFF305
:102170006F8F03F08DFCFFF753FF00F01BF800F0AA
:102180006DF900F07BFC00F0C9FC0320FFF718FE9E
:10219000FA2003F0BDFCFFF74BFE06F035FB00F024
:1021A00041F906F043FB002010BD00BF00ED00E048
:1021B0007047704770B58EB0002409940A940B9450
:1021C0000C940D94684BD3F8E02042F01002C3F851
:1021D000E020D3F8E02002F010020092009AD3F839
:1021E000E02042F00202C3F8E020D3F8E02002F041
:1021F00002020192019AD3F8E02042F04002C3F8B3
:10220000E020D3F8E02002F040020292029AD3F8D4
:10221000E02042F00802C3F8E020D3F8E02002F00A
:1022200008020392039AD3F8E02042F00402C3F8B4
:10223000E020D3F8E02002F004020492049AD3F8DC
:10224000E02042F00102C3F8E020D3F8E02002F0E1
:1022500001020592059AD3F8E02042F48072C3F897
:10226000E020D3F8E02002F480720692069AD3F8B8
:10227000E02042F08002C3F8E020D3F8E02002F032
:1022800080020792079AD3F8E02042F02002C3F8B8
:10229000E020D3F8E03003F020030893089B334E8E
:1022A00022463821304603F08BF838230993012366
:1022B0000A930B9403250C9509A9304602F0B8FE49
:1022C0004FF6C37309930A950B9409A9304602F09F
:1022D000AFFE4FF6FF7309930A950B9409A92448A2
:1022E00002F0A6FE4FF6BF7309930A950B9409A955
:1022F000204802F09DFE4CF2FF7309930A950B945F
:1023000009A91D4802F094FE43F67F7309930A95CC
:102310000B9409A9194802F08BFE49F6FF73099343
:102320000A950B9409A9164802F082FE40F6FF7345
:1023300009930A950B9409A9124802F079FE4FF609
:10234000FC7309930A950B9409A90F4802F070FEDB
:102350004FF6FF3309930A950B9409A90B4802F035
:1023600067FE0EB070BD00BF004402580010025856
:102370000004025800180258000C025800080258C5
:102380000000025800200258001C02580014025895
:1023900008B5FFF70EFF02460821024803F010F8C7
:1023A00008BD00BF0010025808B5FFF702FF024643
:1023B0001021024803F004F808BD00BF00100258C5
:1023C00008B5FFF7F6FE02462021024802F0F8FFAA
:1023D00008BD00BF0010025838B50D461446FFF77F
:1023E000D7FF2846FFF7E0FF2046FFF7E9FF38BD9B
:1023F00008B5002211461046FFF7EEFF08BD08B5EC
:10240000FFF716FD322006F08BFAF9E708B504480D
:10241000FEF73EF94FF47A7006F082FAF7E700BF54
:102420002091000808B5074A0021074806F01AFA6B
:10243000064B1860064A0021064806F013FA064BC0
:10244000186008BD54910008FF230008AC0000206C
:10245000789100080D240008B000002000B583B07A
:102460000B4BD3F8D42042F00102C3F8D420D3F8A8
:10247000D43003F001030193019B002205217A204F
:1024800000F066FC7A2000F0A7FC03B05DF804FBC6
:102490000044025800B58FB0382200216846FEF78C
:1024A00007F84FF4807306930623009341F28832B5
:1024B0006946044803F080FC10B90FB05DF804FBD6
:1024C0000120FAE72001002010B594B0044638221C
:1024D000002106A8FDF7ECFF002200920192029273
:1024E0000392049205924FF480730C930523069394
:1024F0004FF080730F9301230193039310230293F2
:102500004FF48003059323466A4606A9034803F067
:1025100021FE08B914B010BD0120FBE72001002006
:1025200000B591B08DF80700FFF7B4FF18B1012096
:1025300011B05DF804FB3822002102A8FDF7B8FFB6
:102540004FF480730893312302934FF080730B9301
:1025500001230C9341F2883202A90B4803F02CFCB2
:1025600070B941F288320DF10701074803F01AFDF6
:1025700040B96420FFF7A8FF0028D9D00420D7E78E
:102580000220D5E70320D3E72001002010B58EB04C
:102590000446FFF77FFF10B101200EB010BD3822B6
:1025A00000216846FDF784FF4FF4807306932023D3
:1025B00000934FF4806307934FF400530393019407
:1025C00041F288326946074803F0F6FB38B941F218
:1025D0008830FFF779FF0028DFD00320DDE70220F5
:1025E000DBE700BF20010020531EFF2B01D9012093
:1025F000704770B58EB005460E461446FFF74AFF89
:1026000040BB382200216846FDF752FF4FF480732B
:102610000693022300934FF4806307934FF4005313
:10262000039301954FF0807309930A9441F2883225
:1026300069460C4803F0C0FB78B941F28832314654
:10264000084803F0AFFC50B96420FFF73DFF10B11C
:10265000052000E002200EB070BD0320FBE704203F
:10266000F9E700BF2001002010B590B004463822E1
:10267000002102A8FDF71CFF00238DF807304FF45E
:1026800080730893352302934FF080730B930123DB
:102690000C9341F2883202A90B4803F08DFB10B174
:1026A000012010B010BD41F288320DF1070106483B
:1026B00003F0E1FC28B9002CF3D09DF8073023701B
:1026C000EFE70220EDE700BF2001002010B582B047
:1026D0000DF10700FFF7C8FFF0B904469DF80700A9
:1026E00010F0020F05D00F4B01221A70204602B0E5
:1026F00010BD40F002008DF80700FFF711FF68B928
:102700000DF10700FFF7B0FF50B99DF8073013F047
:10271000020FE8D10424E9E70124E7E70224E5E712
:102720000324E3E77203002008B5054B1B780BB1C7
:10273000002008BDFFF7CAFF0028FAD00120F8E703
:102740007203002000B591B0FFF7EEFF18B1012031
:1027500011B05DF804FB3822002102A8FDF7A8FEA5
:102760000023009301934FF4807308936B2302932B
:102770004FF4806309934FF4005305934FF0407377
:102780000B93082307934FF080530F936A4602A9D7
:10279000034803F005FE0028DAD00220D8E700BF86
:1027A000200100202DE9F041BCB004460021379102
:1027B000389139913A913B91C02206A8FDF778FEF5
:1027C0002268574B9A4202D03CB0BDE8F0814FF0EE
:1027D00000720023CDE9062306A801F02FFD002892
:1027E00040F094804F4BD3F8D42042F48042C3F899
:1027F000D420D3F8D42002F480420192019AD3F875
:10280000E02042F01002C3F8E020D3F8E02002F00C
:1028100010020292029AD3F8E02042F04002C3F87C
:10282000E020D3F8E02002F040020392039AD3F8AC
:10283000E02042F02002C3F8E020D3F8E02002F0CC
:1028400020020492049AD3F8E02042F00802C3F870
:10285000E020D3F8E03003F008030593059B042340
:102860003793022638960025399503273A974FF07B
:102870000908CDF8EC8037A92B4802F0D9FB40239A
:1028800037933896012339933A970A233B9337A914
:10289000264802F0CDFB4FF4806337933896399584
:1028A0003A97CDF8EC8037A9214802F0C1FB4FF4EC
:1028B00060533793389639953A97CDF8EC8037A91D
:1028C0001C4802F0B5FB1C481C4B036016234360F8
:1028D0008560C5600561466108238361C561056245
:1028E0004FF00073436220238362C5620563456332
:1028F000856302F0DDFD60B9002211460E4802F04A
:102900005BFF48B90C4BE3631C645DE7FFF786FB94
:1029100068E7FFF783FBEFE7FFF780FBF2E700BF15
:10292000005000520044025800100258001802588B
:1029300000140258000C0258B4000020400000525D
:1029400008B5002304E083F05A01134AD15401333F
:10295000FF2BF8D90020FFF719FE00B108BD4FF496
:1029600080720D49FFF740FE0028F7D1002305E0F3
:1029700003F110421178094AD1540133FF2BF7D9E2
:102980000023FF2BEAD8054AD15C034AD25C91426E
:10299000E4D10133F5E700BF6C0200206C01002098
:1029A00070B590B006460D4614463822002102A8A4
:1029B000FDF77EFD194B1B88ADF8043000238DF820
:1029C00006309F2302934FF080730B934FF4807374
:1029D000089303230C9341F2883202A9104803F0B4
:1029E000EBF910B1012010B070BD41F2883201A99D
:1029F0000B4803F040FB68B916B19DF80430337002
:102A000015B19DF805302B7034B19DF80630237058
:102A10000020E8E70220E6E70020E4E7389000081D
:102A20002001002000B583B00DF105020DF1060173
:102A30000DF10700FFF7B4FF98B99DF80730EF2BB1
:102A400013D19DF80630402B18BF602B0FD19DF895
:102A50000530182B0DD1084B1B69172B02D006200F
:102A600000E0012003B05DF804FB0220FAE7032038
:102A7000F8E70420F6E700BF2001002008B51C4855
:102A80001C4B036002234360202383600023C36048
:102A9000172202614FF48072426101228261C36198
:102AA000036203F089FDB0B9FFF7BCFF124B187049
:102AB0001B789BB9FFF738FE98B9FFF743FE98B92A
:102AC0000E4B01221A704FF010431A680C4B1A601B
:102AD000FFF736FF08BDFFF7A1FAE5E7FFF79EFA1B
:102AE000E8E7FFF79BFAE8E7FFF798FAF0E700BF9F
:102AF00020010020005000527003002071030020CC
:102B00006C030020014B1878704700BF7103002050
:102B1000014B1878704700BF7003002000B589B0E2
:102B20000023049305930693079301930293039361
:102B300015484FF080420260C722426083604FF028
:102B4000FF32C2600361836103F0B2FE90B94FF4BB
:102B50008053049304A90C4803F076FF68B900235E
:102B60000193039301A9084804F00EFA40B909B093
:102B70005DF804FBFFF752FAE9E7FFF74FFAEEE7DB
:102B8000FFF74CFAF3E700BF740300200368B3F1CA
:102B9000804F00D0704782B0074BD3F8E82042F056
:102BA0000102C3F8E820D3F8E83003F001030193F1
:102BB000019B02B0704700BF00440258FEE7FEE7E9
:102BC000FEE7FEE7FEE7704708B502F08FFF05F06D
:102BD00093FB012800D108BD06F0C4F8FBE7000014
:102BE00008B5024802F01CFE08BD00BFB40000207A
:102BF00000B583B00A4BD3F8F42042F00202C3F8C8
:102C0000F420D3F8F43003F002030193019B002277
:102C10000F216FF0010000F09BF803B05DF804FB9A
:102C200000440258024BD3F8F00000F00100704756
:102C300000ED00E010B41A4AD2F8FC3043F0807383
:102C4000C2F8FC304FF06043164AC3F8B02F164C60
:102C5000C4F8B02F0022C3F8802EC3F8002E0A4615
:102C600011B1B0FBF1F2013A104B1A610222C3F824
:102C7000F0204FF48072C3F804230B4A136843F02A
:102C8000010313604FF060430022C3F8402E084A4E
:102C9000C3F8802E0122C3F8002E5DF8044B704764
:102CA00000ED00E055CEACC5001000E0000004E0EF
:102CB000170001004FF06043D3F8803E13F0010F7E
:102CC0000BD04FF06043D3F8003E13F0010F07D054
:102CD000C2B24FF060431A7070474FF0FF30704738
:102CE0004FF0FF30704710B5044618B905E00134C5
:102CF000FFF7E0FF20780028F9D110BD10B5044699
:102D0000FFF790FF08B9204610BD2046FFF7D2FF1D
:102D1000F9E7000010B50446C31E042B0DD8094A7C
:102D2000D36823F4E0631B041B0C240204F4E06466
:102D30001C43054B2343D36010BD91210348FFF78B
:102D400037FAECE700ED00E00000FA059C9100087E
:102D500070B505460C4616460F2A21D80F2C24D8EC
:102D6000194BDB68C3F30223C3F10701042928BF11
:102D700004211A1D062A1DD9033B4FF0FF3202FA27
:102D800001F124EA01049C4002FA03F326EA030657
:102D90003443002D10DB2401E4B20C4B5C5570BDB4
:102DA000A9210B48FFF704FAD8E7AA210848FFF742
:102DB000FFF9D5E70023E0E705F00F052401E4B2B1
:102DC000044B5C55EBE700BF00ED00E000E400E0E1
:102DD0009C91000814ED00E010B5041E0ADB002CE5
:102DE00007DB04F01F02640901239340044A42F800
:102DF000243010BDBD210348FFF7DAF9EFE700BF2B
:102E000000E100E09C9100080138B0F1807F0BD216
:102E10004FF0E0235861054AF02182F8231000208A
:102E2000986107221A6170470120704700ED00E0A9
:102E3000BFF35F8F044B5A6A22F480325A62002239
:102E4000C3F89420704700BF00ED00E040F001009F
:102E5000054BC3F894005A6A42F480325A62BFF3B9
:102E60004F8FBFF36F8F704700ED00E010B5044641
:102E700043780F2B49D82378012B4CD8237B012B87
:102E80004FD8E37A052B18BF032B01D9062B4ED15F
:102E9000A37A022B51D8637B012B54D8A37B012B3F
:102EA00057D8E37B012B5AD8637AFF2B5DD0237A66
:102EB000043BDBB21B2B5ED86378324AC2F89830F1
:102EC000D2F8A03023F00103C2F8A0306368C2F842
:102ED0009C30217BE37A1B0643EA0173A17A43EA23
:102EE000C143617B43EA8143A17B43EA4143E17BE8
:102EF00043EA0143617A43EA0123217A43EA410329
:102F000021780B43C2F8A03010BD40F24D111E488D
:102F1000FFF74EF9AFE74FF4A7711B48FFF748F9E9
:102F2000ACE740F24F111848FFF742F9A9E74FF418
:102F3000A8711548FFF73CF9AAE740F25111124871
:102F4000FFF736F9A7E74FF4A9710F48FFF730F9FB
:102F5000A4E740F253110C48FFF72AF9A1E74FF418
:102F6000AA710948FFF724F99EE740F25511064877
:102F7000FFF71EF99BE74FF4AB710348FFF718F911
:102F80009AE700BF00ED00E09C910008002800F0E7
:102F90001C8438B50446036813B113F03F0F25D0E5
:102FA000236813F0010F3AD06368002B18BFB3F504
:102FB000803F02D0B3F5A02F1ED1A04A136903F0C1
:102FC0003803926A102B21D0182B1BD06368B3F5FD
:102FD000803F57D0002B6BD1984B1A6822F4803277
:102FE0001A601A6822F480221A6050E040F2A1119F
:102FF0009348FFF7DDF8D3E74FF4D3719048FFF71C
:10300000D7F8DAE702F00302022ADFD18B4B1B6804
:1030100013F4003F03D06368002B00F0D8832368CB
:1030200013F0020F00F0B980E368092B18BF012BE1
:1030300003D9112B01D0192B60D123697F2B63D8C1
:103040007E4A1369926A13F0380366D0182B61D058
:10305000E368002B00F0F68078490A6822F0190234
:1030600013430B6002F04EFD0546744B1B6813F0D2
:10307000040F40F0C18002F045FD401B0228F4D946
:10308000032068E06D4A136843F48033136063687B
:103090002BB302F037FD0546684B1B6813F4003F65
:1030A000BDD102F02FFD401B6428F5D9032052E06A
:1030B000B3F5A02F09D0614B1A6822F480321A6050
:1030C0001A6822F480221A60E1E75C4B1A6842F425
:1030D00080221A601A6842F480321A60D7E702F040
:1030E00011FD0546554B1B6813F4003F97D002F0C5
:1030F00009FD401B6428F5D903202CE04FF4ED7145
:103100004F48FFF755F898E740F2DB114C48FFF7BE
:103110004FF895E712F0030F9AD1484B1B6813F054
:10312000040F03D0E368002B00F05383434A136875
:1031300023F01903E1680B43136002F0E3FC05463A
:103140003E4B1B6813F0040F06D102F0DBFC401B62
:103150000228F5D9032038BD02F0EEFC41F203034A
:10316000984212D82269402A07D034494B6823F488
:103170007C3343EA02334B600FE0304A536823F458
:103180007C3343F40033536007E02C4A536823F048
:10319000FE43216943EA01635360236813F0100F73
:1031A00000F09E80E369002B18BF802B5ED1236A5C
:1031B0003F2B61D8214A136903F03803926A082B28
:1031C00064D0182B5ED0E369002B00F0C9801B4A45
:1031D000136843F08003136002F094FC0546174B1C
:1031E0001B6813F4807F40F0998002F08BFC401B39
:1031F0000228F4D90320AEE702F09EFC41F203035B
:10320000984212D82269402A07D00C494B6823F40F
:103210007C3343EA02334B60BFE7084A536823F428
:103220007C3343F400335360B7E7044A536823F018
:10323000FE43216943EA01635360AEE7004402584C
:10324000D49100089D4A136823F00103136002F033
:1032500059FC0546994B1B6813F0040F9DD002F0F2
:1032600051FC401B0228F5D9032074E740F22B21C2
:103270009348FEF79DFF9AE74FF40B719048FEF7D5
:1032800097FF97E702F00302012A9CD18B4B1B6842
:1032900013F4807F03D0E369802B40F09C8202F01E
:1032A0004BFC41F20303984212D8226A202A07D02D
:1032B00082494B6823F0F84343EA82634B600FE096
:1032C0007E4A536823F0F84343F08043536007E09D
:1032D0007A4AD36823F07C53216A43EA0163D360BE
:1032E000236813F0080F69D06369012B4CD8636918
:1032F000002B4FD0714A536F43F00103536702F024
:1033000001FC05466D4B5B6F13F0020F56D102F0C6
:10331000F9FB401B0228F5D903201CE702F00CFC46
:1033200041F20303984212D8226A202A07D0634947
:103330004B6823F0F84343EA82634B60D0E75F4A6F
:10334000536823F0F84343F080435360C8E75B4A77
:10335000D36823F07C53216A43EA0163D360BFE75B
:10336000564A136823F08003136002F0CBFB054636
:10337000524B1B6813F4807FB2D002F0C3FB401B9A
:103380000228F5D90320E6E640F26D214C48FEF70D
:103390000FFFACE7494A536F23F00103536702F074
:1033A000B1FB0546454B5B6F13F0020F06D002F0F0
:1033B000A9FB401B0228F5D90320CCE6236813F0B3
:1033C000200F32D0A369012B15D8A369CBB13B4A9A
:1033D000136843F48053136002F094FB0546374BA7
:1033E0001B6813F4005F20D102F08CFB401B022805
:1033F000F5D90320AFE64FF426713148FEF7D8FE29
:10340000E3E72E4A136823F48053136002F07AFB3B
:1034100005462A4B1B6813F4005F06D002F072FBCE
:10342000401B0228F5D9032095E6236813F0040F0A
:1034300071D0A368052B18BF012B13D8214A13683C
:1034400043F48073136002F05DFB05461D4B1B685F
:1034500013F4807F0CD102F055FB401B6428F5D992
:10346000032078E640F2C2211548FEF7A1FEE5E709
:10347000A368012B0AD03BBB104B1A6F22F001024C
:103480001A671A6F22F004021A6704E00B4A136FDE
:1034900043F001031367A36863B302F033FB0546EF
:1034A000064B1B6F13F0020F35D102F02BFB401BB4
:1034B00041F288339842F3D903204CE60044025885
:1034C000D491000800480258052B09D0924B1A6F7E
:1034D00022F001021A671A6F22F004021A67DAE773
:1034E0008D4B1A6F42F004021A671A6F42F0010204
:1034F0001A67D0E702F006FB0546874B1B6F13F0F7
:10350000020F08D002F0FEFA401B41F288339842C5
:10351000F3D903201FE6636A022B4FD8636A002B9E
:1035200000F05B817C4A126902F03802182A00F030
:10353000FB80022B40F0DA80A36A032B18BF012B1B
:1035400001D9022B40D1236C002B18BF042B03D0D0
:10355000082B01D00C2B3DD1636C002B18BF022B24
:103560003ED1E36A013B3E2B40D8236B043BB3F5CD
:10357000FE7F41D8636B013B7F2B43D8A36B013B9C
:103580007F2B45D8E36B013B7F2B47D8A36CB3F56A
:10359000005F49D2604A136823F08073136002F021
:1035A000B1FA05465C4B1B6813F0007F42D002F075
:1035B000A9FA401B0228F5D90320CCE54FF43D7150
:1035C0005648FEF7F5FDA9E740F2FD215348FEF706
:1035D000EFFDB8E740F2FE215048FEF7E9FDBBE7FA
:1035E00040F2FF214D48FEF7E3FDBAE74FF440718A
:1035F0004A48FEF7DDFDB8E740F201314748FEF7E3
:10360000D7FDB7E740F202314448FEF7D1FDB5E7F8
:1036100040F203314148FEF7CBFDB3E74FF441716F
:103620003E48FEF7C5FDB1E740F205313B48FEF7E5
:10363000BFFDAFE7384B996A394A0A40A16AE06A90
:1036400041EA00110A439A62226B013AC2F308026E
:10365000616B0139490289B20A43A16B013909043E
:1036600001F4FE010A43E16B0139090601F0FE4154
:103670000A431A63DA6A22F00102DA62596B294AB4
:103680000A40A16C42EAC1025A63DA6A22F00C02D3
:10369000216C0A43DA62DA6A22F00202616C0A43A0
:1036A000DA62DA6A42F48032DA62DA6A42F40032CA
:1036B000DA62DA6A42F48022DA62DA6A42F00102FD
:1036C000DA621A6842F080721A6002F01BFA04464D
:1036D000114B1B6813F0007F06D102F013FA001B98
:1036E0000228F5D9032036E5002034E50A4A13689C
:1036F00023F08073136002F005FA0446064B1B6842
:1037000013F0007F06D002F0FDF9001B0228F5D966
:10371000032020E500201EE500440258D491000853
:103720000CFCFFFF0700FFFF354A916A106B012B6D
:1037300055D001F00303A26A934252D1C1F305119F
:10374000E36A99424FD1C0F30802236B013B9A42CE
:103750004BD1C0F34622636B013B9A4247D1C0F381
:103760000642A36B013B9A4243D1C0F30660E36B70
:10377000013B98423FD1224B5B6BC3F3CC03A26C5D
:103780009A423AD0B2F5005F19D21D4AD36A23F0AB
:103790000103D36202F0B6F9054602F0B3F9A8427C
:1037A000FBD0174A516B174B0B40A16C43EAC10386
:1037B0005363D36A43F00103D3620020CBE44FF498
:1037C0005B711148FEF7F4FCDFE701207047012030
:1037D000C1E40120BFE40120BDE40020BBE40120DE
:1037E000B9E40120B7E40120B5E40120B3E40120ED
:1037F000B1E40120AFE40120ADE40020ABE400BF60
:10380000004402580700FFFFD4910008744B1B6965
:1038100003F03803102B00F0DE80182B10D00BB112
:10382000704870476E4B1B6813F0200F00F0D58076
:103830006B4B1868C0F3C1006B4B23FA00F0704764
:1038400010B4674A916A01F00301946AC4F3051049
:10385000D36A03F0010C536BC3F3CC030CFB03F3EB
:1038600007EE903AF8EE677A14F47C7F00F09380CC
:10387000012965D0022900F09180E1B107EE100A1C
:10388000F8EE476A9FED596A86EE267A544B1B6B19
:10389000C3F3080306EE903AF8EE666A9FED546AA9
:1038A00067EE867A76EEA77AF7EE006A77EEA67A6A
:1038B00027EE277A60E0136813F0200F23D011461B
:1038C0001268C2F3C102484BD34007EE103AF8EE3B
:1038D000476A07EE100AB8EE476A86EE867A0B6BE7
:1038E000C3F3080306EE903AF8EE666A9FED406A6D
:1038F00067EE867A76EEA77AF7EE006A77EEA67A1A
:1039000027EE277A38E007EE100AF8EE476A9FEDB7
:10391000396A86EE267A324B1B6BC3F3080306EE38
:10392000903AF8EE666A9FED326A67EE867A76EE36
:10393000A77AF7EE006A77EEA67A27EE277A1BE0E1
:1039400007EE100AF8EE476A9FED286A86EE267A9F
:10395000234B1B6BC3F3080306EE903AF8EE666A3E
:103960009FED236A67EE867A76EEA77AF7EE006A15
:1039700077EEA67A27EE277A194B1B6BC3F3462303
:10398000013307EE903AF8EE677AC7EE276AFCEE4D
:10399000E67A17EE900A5DF8044B704707EE100ABE
:1039A000F8EE476A9FED146A86EE267A0C4B1B6B85
:1039B000C3F3080306EE903AF8EE666A9FED0C6AD0
:1039C00067EE867A76EEA77AF7EE006A77EEA67A49
:1039D00027EE277AD0E7094870470348704700BFB1
:1039E0000044025800093D000090D0030024744AAE
:1039F000000000390024744C0024744B0024F400AF
:103A0000002800F0418270B50D4604460368013B72
:103A10003E2B00F2E9800F2D00F2EC809D4B1B68DD
:103A200003F00F03AB420BD29A4A136823F00F0343
:103A30002B431360136803F00F03AB4240F0268260
:103A4000236813F0040F18D02269934B9B6903F08D
:103A500070039A4211D9002A18BF402A06D0502A72
:103A600004D0602A02D0702A40F0CA808A4A936942
:103A700023F0700321690B439361236813F0080F4F
:103A800018D06269844BDB6903F070039A4211D944
:103A9000002A18BF402A06D0502A04D0602A02D03B
:103AA000702A40F0B3807C4AD36923F070036169C7
:103AB0000B43D361236813F0100F1CD0A269764B1F
:103AC000DB6903F4E0639A4215D9002A18BFB2F506
:103AD000806F09D0B2F5A06F06D0B2F5C06F03D0E9
:103AE000B2F5E06F40F098806B4AD36923F4E0634D
:103AF000A1690B43D361236813F0200F18D0E2694A
:103B0000654B1B6A03F070039A4211D9002A18BF53
:103B1000402A06D0502A04D0602A02D0702A40F0F1
:103B200081805D4A136A23F07003E1690B431362DD
:103B3000236813F0020F1FD0E268574B9B6903F014
:103B40000F039A4218D9002A18BF082A0DD0092A53
:103B50000BD00A2A09D00B2A07D00C2A05D00D2A2F
:103B600003D00E2A01D00F2A62D14B4A936923F069
:103B70000F03E1680B439361236813F0010F00F01A
:103B80009D80A368002B18BFB3F5006F14D0B3F568
:103B9000106F11D0B3F5206F0ED0B3F5306F0BD08E
:103BA000B3F5406F08D0B3F5506F05D0B3F5606F33
:103BB00002D0B3F5706F41D16368032B44D8364A05
:103BC000936923F47063A1680B4393616368022BCC
:103BD00040D0032B64D0012B69D02F4A126812F019
:103BE000040F3CD1012030E140F2A7312B48FEF711
:103BF000DFFA10E74FF46A712848FEF7D9FA0DE7AB
:103C00004FF471712548FEF7D3FA2FE740F2D63111
:103C10002248FEF7CDFA46E740F2E7311F48FEF7AB
:103C2000C7FA61E740F2F9311C48FEF7C1FA78E7BC
:103C300040F20C411948FEF7BBFA96E740F21C41EE
:103C40001648FEF7B5FAB7E740F21D411348FEF7F4
:103C5000AFFAB4E7126812F4003F00F019810E4980
:103C60000A6922F0070213430B6101F04BFF06467D
:103C7000094B1B6903F038036268B3EBC20F1DD018
:103C800001F040FF801B41F288339842F0D90320B5
:103C9000DBE000BF0020005200440258D49100082D
:103CA0007D4A126812F0007FD9D10120CDE07A4A16
:103CB000126812F4807FD2D10120C6E0236813F08D
:103CC000020F20D0E268744B9B6903F00F039A4205
:103CD00019D2002A18BF082A0ED0092A0CD00A2AA5
:103CE0000AD00B2A08D00C2A06D00D2A04D00E2A9E
:103CF00002D00F2A40F0AA80674A936923F00F038D
:103D0000E1680B439361654B1B6803F00F03AB4203
:103D10000BD9624A136823F00F032B431360136817
:103D200003F00F03AB4240F0B580236813F0040F9B
:103D300018D02269584B9B6903F070039A4211D244
:103D4000002A18BF402A06D0502A04D0602A02D088
:103D5000702A40F08180504A936923F070032169F2
:103D60000B439361236813F0080F17D062694A4B25
:103D7000DB6903F070039A4210D2002A18BF402A70
:103D800005D0502A03D0602A01D0702A6AD1424A55
:103D9000D36923F0700361690B43D361236813F087
:103DA000100F1BD0A2693C4BDB6903F4E0639A421D
:103DB00014D2002A18BFB2F5806F08D0B2F5A06FF8
:103DC00005D0B2F5C06F02D0B2F5E06F50D1324AE3
:103DD000D36923F4E063A1690B43D361236813F033
:103DE000200F17D0E2692C4B1B6A03F070039A4234
:103DF00010D2002A18BF402A05D0502A03D0602ACA
:103E000001D0702A3AD1244A136A23F07003E16981
:103E10000B431362FFF7FAFC1F498B69C3F30323BB
:103E20001F4AD35C03F01F03D8408B6903F00F03D4
:103E3000D35C03F01F0320FA03F31A4A13601A4BF2
:103E400018601A4B186801F0FBFD70BD40F25E412E
:103E50001748FEF7ADF94FE740F27F411448FEF7EF
:103E6000A7F978E740F291411148FEF7A1F98EE7F2
:103E700040F2A3410E48FEF79BF9A8E740F2B54196
:103E80000B48FEF795F9BEE7012070470120DCE7FB
:103E90000120DAE70120D8E7004402580020005250
:103EA00094930008700000206C000020680000203F
:103EB000D491000870B504460E460368013B3E2BC2
:103EC0003DD86368043BB3F5FE7F3ED8A368013B51
:103ED0007F2B40D82369013B7F2B42D8E368013B0D
:103EE0007F2B44D86369002B18BF402B03D0802B55
:103EF00001D0C02B41D1A369002B18BF202B42D188
:103F0000E369B3F5005F44D2574B9B6A03F00303A8
:103F1000032B00F0A780544A136823F080631360DA
:103F200001F0F0FD0546504B1B6813F0006F36D0D2
:103F300001F0E8FD431B022BF5D9032093E040F686
:103F400072614A48FEF734F9BBE740F673614748AF
:103F5000FEF72EF9BAE740F674614448FEF728F9F7
:103F6000B8E740F675614148FEF722F9B6E740F63A
:103F700076613E48FEF71CF9B4E740F677613B48AE
:103F8000FEF716F9B7E740F678613848FEF710F902
:103F9000B6E740F679613548FEF70AF9B4E7324BE7
:103FA0009A6A22F47C32216842EA01329A6262689B
:103FB000013AC2F30802A1680139490289B20A43F1
:103FC000E1680139090401F4FE010A43216901395C
:103FD000090601F0FE410A439A63DA6A22F0C00240
:103FE00061690A43DA62DA6A22F02002A1690A43AF
:103FF000DA62DA6A22F01002DA62D96B1C4A0A40ED
:10400000E16942EAC102DA63DA6A42F01002DA6276
:10401000C6B91A46DB6A43F40023D362124A136816
:1040200043F08063136001F06DFD04460E4B1B6886
:1040300013F0006F14D101F065FD001B0228F5D9C3
:10404000032010E0012E05D0074AD36A43F4001381
:10405000D362E3E7044AD36A43F48013D362DDE713
:10406000002000E0012070BD004402580C920008BE
:104070000700FFFF70B504460E460368013B3E2B68
:1040800041D86368043BB3F5FE7F42D8A368013B87
:104090007F2B44D82369013B7F2B46D8E368013B43
:1040A0007F2B48D86369002B18BFB3F5806F05D00C
:1040B000B3F5006F02D0B3F5406F42D1A369002B76
:1040C00018BFB3F5007F42D1E369B3F5005F44D276
:1040D000574B9B6A03F00303032B00F0A780544A5D
:1040E000136823F08053136001F00CFD0546504B1C
:1040F0001B6813F0005F36D001F004FD431B022B58
:10410000F5D9032093E040F6DA614A48FEF750F80B
:10411000B7E740F6DB614748FEF74AF8B6E740F6F6
:10412000DC614448FEF744F8B4E740F6DD614148FD
:10413000FEF73EF8B2E740F6DE613E48FEF738F89B
:10414000B0E740F6DF613B48FEF732F8B6E74FF4E0
:104150006E613848FEF72CF8B6E740F6E161354865
:10416000FEF726F8B4E7324B9A6A22F07C72216897
:1041700042EA01529A626268013AC2F30802A168F7
:104180000139490289B20A43E1680139090401F49D
:10419000FE010A4321690139090601F0FE410A4383
:1041A0001A64DA6A22F4406261690A43DA62DA6AFE
:1041B00022F40072A1690A43DA62DA6A22F4807298
:1041C000DA62596C1C4A0A40E16942EAC1025A6447
:1041D000DA6A42F48072DA62C6B91A46DB6A43F4DC
:1041E0008003D362124A136843F08053136001F0D6
:1041F00089FC04460E4B1B6813F0005F14D101F0DC
:1042000081FC001B0228F5D9032010E0012E05D007
:10421000074AD36A43F08073D362E3E7044AD36A60
:1042200043F40003D362DDE7002000E0012070BD0D
:10423000004402580C9200080700FFFFF8B504463E
:10424000036813F0006F30D0836EB3F5001F26D0E3
:104250000ED8EBB1B3F5801F07D102210830FFF76C
:1042600029FE054645B12E4621E0012635461EE0D1
:10427000B3F5401F09D10025A04A136D23F4401364
:10428000A16E0B431365002611E0012635460EE0B2
:104290009A4AD36A43F40033D3620025ECE7022143
:1042A0002830FFF7E7FE0546DCE7002635462368A1
:1042B00013F4807F14D0A36D042B32D8DFE803F011
:1042C00003232A0808008D4AD36A43F40033D362DB
:1042D00055BB8A4A136D23F00703A16D0B43136589
:1042E000236813F4007F31D0E36D802B4DD020D8AC
:1042F000002B44D0402B19D1002104F10800FFF716
:10430000D9FD05461AE0002104F10800FFF7D2FDAF
:104310000546DDE7002104F12800FFF7ABFE054666
:10432000D6E701263546DBE72E46D9E70126354696
:104330000CE0C02B02D0B3F5807F1DD165BB6F4A66
:10434000136D23F4E073E16D0B431365236813F4DD
:10435000806F35D0D4F8A830B3F5800F4FD020D877
:10436000002B46D0B3F5001F18D1002104F108003E
:10437000FFF7A0FD05461AE001263546E6E75F4A4D
:10438000D36A43F40033D362D8E7002104F1280054
:10439000FFF770FE0546D1E72E46D7E701263546E2
:1043A0000EE0B3F5C00F02D0B3F5000F1ED16DBB08
:1043B000524A936D23F46003D4F8A8100B4393651D
:1043C000236813F4006F36D0D4F8AC30B3F1007F1B
:1043D00054D020D8002B4BD0B3F1807F18D10021CE
:1043E00004F10800FFF766FD05461AE00126354690
:1043F000E6E7424AD36A43F40033D362D7E70021A9
:1044000004F12800FFF736FE0546D0E72E46D7E731
:10441000012635460FE0B3F1407F02D0B3F1806F43
:1044200023D1002D31D1354A936D23F0E063D4F8C8
:10443000AC100B439365236813F0007F2ED0E36C20
:10444000202B3FD026D833B1102B20D12B4AD36A52
:1044500043F40033D362002D3BD1284AD36C23F0C0
:104460003003E16C0B43D36418E001263546E2E7E4
:10447000224AD36A43F40033D362D2E7002104F125
:104480002800FFF7F7FD0546CBE72E46D3E70126C8
:10449000354603E0302BDED001263546236813F481
:1044A000805F3ED0236EB3F5005F32D016D853B391
:1044B000B3F5805F0FD1002104F10800FFF7FAFC8B
:1044C000054611E0022104F10800FFF7F3FC054660
:1044D000C1E72E46E2E70126354622E0B3F5405F0C
:1044E00002D0B3F5804F0BD1D5B9044A136D23F434
:1044F000E043216E0B43136513E000BF00440258F4
:10450000012635460DE0554AD36A43F40033D362A1
:10451000EAE7002104F12800FFF7ACFD0546E3E7D8
:104520002E46236813F4005F26D0636EB3F5003F78
:1045300041D016D843B1B3F5803F0FD1012104F12A
:104540000800FFF7B7FC0546002D3BD1434A136D29
:1045500023F4E023616E0B4313650DE0012635461D
:104560000AE0B3F5802FEFD0B3F5A02FECD0B3F570
:10457000403FE9D001263546236813F4804F31D0FF
:10458000D4F8B030B3F1005F48D020D843B1B3F1D4
:10459000805F19D1012104F10800FFF78BFC05466B
:1045A000002D42D12D4A936D23F0E043D4F8B01092
:1045B0000B43936516E0012104F12800FFF75AFD33
:1045C0000546C1E72E46D7E7012635460AE0B3F196
:1045D000804FE5D0B3F1A04FE2D0B3F1405FDFD020
:1045E00001263546236813F4004F09D0236FB3F139
:1045F000805F1CD0B3F1005F27D0EBB101263546B8
:10460000236813F0807F3AD0A36C032B00F2A881BB
:10461000DFE813F02B0026009F012B00012104F19D
:104620002800FFF727FD0546BAE72E46DAE70B4AD2
:10463000D36A43F40033D36275B9084A136D23F08B
:104640004053216F0B431365DAE7012104F10800A1
:10465000FFF730FC0546EFE72E46D1E7004402584D
:10466000B74AD36A43F40033D362002D40F07B8114
:10467000B34AD36C23F00303A16C0B43D3642368C8
:1046800013F4800F00F08D81D4F8B430B3F5807F3F
:1046900018BFB3F5007F00F00D81B3F50C5F00F09B
:1046A0000981B3F54C5F00F00581B3F5864F00F04A
:1046B0000181B3F5A64F00F0FD80B3F5C64F00F0C1
:1046C000F980B3F5E64F00F0F580B3F5034F00F045
:1046D000F180B3F5134F00F0ED80B3F5234F00F0F8
:1046E000E980B3F5334F00F0E580B3F5434F00F0B8
:1046F000E180B3F5534F00F0DD80B3F5634F00F078
:10470000D980B3F5734F00F0D5808E4A934200F004
:10471000D18002F58052934200F0CC8002F58052A5
:10472000934200F0C78002F58052934200F0C280AD
:1047300002F58052934200F0BD8002F58052934210
:1047400000F0B88002F58052934200F0B38002F589
:104750008052934200F0AE8002F58052934200F006
:10476000A98002F58052934200F0A48002F58052A5
:10477000934200F09F8002F58052934200F09A80AD
:1047800002F58052934200F0958002F580529342E8
:1047900000F0908002F58052934200F08B8002F589
:1047A0008052934200F0868002F58052934200F0DE
:1047B000818002F5805293427CD002F58052934270
:1047C00078D002F58052934274D002F58052934221
:1047D00070D002F5805293426CD002F58052934221
:1047E00068D002F58052934264D002F58052934221
:1047F00060D002F5805293425CD002F58052934221
:1048000058D002F58052934254D002F58052934220
:1048100050D002F5805293424CD002F58052934220
:1048200048D002F58052934244D002F58052934220
:1048300040D002F5805293423CD002F58052934220
:1048400038D002F58052934234D002F58052934220
:1048500030D002F5805293422CD002F58052934220
:1048600028D002F58052934224D002F58052934220
:1048700020D002F5805293421CD002F58052934220
:1048800018D002F58052934214D002F58052934220
:1048900010D002F5805293420CD002F58052934220
:1048A00008D002F58052934204D040F27D31264870
:1048B000FDF77EFC254A136843F48073136001F012
:1048C00021F90746214B1B6813F4807F05D101F0C5
:1048D00019F9C01B6428F5D90325002D60D1184BA8
:1048E0001B6FD4F8B420534013F4407F0CD0144B0A
:1048F0001A6F22F44072196F41F480311967196FF1
:1049000021F4803119671A67D4F8B430B3F5807F89
:104910002BD0002D63D1D4F8B43003F44072B2F53B
:10492000407F33D0064A136923F47C531361044952
:104930000B6FD4F8B420C2F30B0213430B6707E0EC
:1049400000440258000301000C920008004802587D
:1049500027E0022104F10800FFF7ACFA054684E6DF
:10496000012635468BE62E4689E601F0CBF8074650
:10497000924B1B6F13F0020FCBD101F0C3F8C01B99
:1049800041F288339842F3D90325C2E78B48026984
:1049900022F47C528A4901EA131313430361C6E7E8
:1049A0002E46236813F0010F33D0E36F282B2ED847
:1049B000DFE803F01D2D2D2D2D2D2D2D172D2D2D47
:1049C0002D2D2D2D262D2D2D2D2D2D2D1D2D2D2D2E
:1049D0002D2D2D2D1D2D2D2D2D2D2D2D1D002E463A
:1049E000DFE7012104F10800FFF764FA0546E5B9A5
:1049F000724A536D23F03803E16F0B43536508E0AF
:104A0000012104F12800FFF735FB0546EFE70126F9
:104A10003546236813F0020F17D0A36F052B28D853
:104A2000DFE803F00B05200B0B0B2E46F1E701210D
:104A300004F10800FFF73EFA0546EDB95F4A536DF1
:104A400023F00703A16F0B435365236813F0040F92
:104A500023D0D4F89430052B45D8DFE803F0150FA8
:104A60003D151515012104F12800FFF703FB05464C
:104A7000E3E701263546E8E72E46E6E7012104F1A3
:104A80000800FFF717FA054685BB4C4A936D23F0E3
:104A90000703D4F894100B439365236813F0200F99
:104AA00034D0D4F89030B3F1005F4ED023D843B166
:104AB000B3F1805F1CD1002104F10800FFF7FAF97F
:104AC0000546002D48D13D4A536D23F0E043D4F80C
:104AD00090100B43536519E0012104F12800FFF702
:104AE000C9FA0546D0E701263546D6E72E46D4E773
:104AF000012635460AE0B3F1804FE2D0B3F1A04F72
:104B0000DFD0B3F1405FDCD001263546236813F0D7
:104B1000400F31D0D4F89C30B3F5006F52D020D87C
:104B200043B1B3F5806F19D1002104F10800FFF7FC
:104B3000C1F90546002D4CD1204A936D23F4E05372
:104B4000D4F89C100B43936516E0022104F1280071
:104B5000FFF790FA0546B4E72E46D7E7012635461B
:104B60000AE0B3F5805FE5D0B3F5A05FE2D0B3F51E
:104B7000406FDFD001263546236813F0800F38D010
:104B8000D4F8A030B3F5804F00F0CF8026D843B1E1
:104B9000B3F5005F1FD1002104F10800FFF78AF987
:104BA0000546002D40F0C880044A936D23F460430D
:104BB000D4F8A0100B4393651BE000BF00440258DB
:104BC000CFFFFF00022104F12800FFF753FA05464A
:104BD000B0E72E46D0E7012635460AE0B3F5004F90
:104BE000DFD0B3F5204FDCD0B3F5C04FD9D00126CC
:104BF0003546236813F0080F1AD0D4F88430B3F583
:104C0000805F18BFB3F5005F04D01BB1B3F5405F00
:104C100040F09480D4F88430B3F5805F00F0948045
:104C2000824A536D23F44053D4F884100B435365E8
:104C3000236813F0100F1AD0D4F89830B3F5807FA2
:104C400018BFB3F5007F04D01BB1B3F5407F40F02F
:104C50008580D4F89830B3F5807F00F08580734A62
:104C6000936D23F44073D4F898100B439365236835
:104C700013F4002F0CD0D4F8A430B3F5803F00F02B
:104C80008D80B3F5003F7FD0002B77D001263546CD
:104C9000236813F4802F0ED0D4F88830B3F5001FAA
:104CA00000F09480B3F5401F00F08680B3F5801FBC
:104CB0007DD001263546236813F4803F10D0236D44
:104CC000002B18BFB3F5803F40F08980236D002B87
:104CD00000F08B80B3F5803F00F0958001263546CB
:104CE000236813F0005F40F09780236813F4003FBF
:104CF00000F0A480D4F88030B3F5807F00F03181DB
:104D000040F29880B3F5007F03D0B3F5407F40F0C8
:104D10002681002D40F02B81444A536D23F44073CB
:104D2000D4F880100B43536588E0022104F1280079
:104D3000FFF7A0F9054634E72E465AE740F20D5139
:104D40003B48FDF735FA65E7022104F12800FFF73B
:104D500091F900283FF464AF012661E74FF4A461A4
:104D60003348FDF725FA74E7022104F12800FFF724
:104D700081F900283FF473AF012670E7002104F1A8
:104D80000800FFF797F805467DB9284A936D23F48C
:104D90004033D4F8A4100B43936579E7022104F162
:104DA0002800FFF767F90546EEE72E4670E71F4A31
:104DB000D36A43F40033D3627DB91C4A536D23F4A4
:104DC0004013D4F888100B43536574E7012104F1B4
:104DD0002800FFF74FF90546EEE72E466BE740F255
:104DE00086511348FDF7E4F970E7104AD36A43F49B
:104DF0000033D36275B90D4AD36C23F48033216D2F
:104E00000B43D3646CE7022104F10800FFF752F86A
:104E10000546EFE72E4663E7022104F12800FFF77D
:104E200029F900283FF461AF01265EE700440258EB
:104E30000C920008002B3FF46CAF0126236813F49A
:104E4000801F0DD0636F002B18BFB3F1004F40F0EF
:104E50009080754A136D23F00043616F0B43136517
:104E6000236813F0805F0FD0D4F8B830002B18BF40
:104E7000B3F5804F40F083806B4A136923F480437D
:104E8000D4F8B8100B431361236813F4001F0CD03F
:104E9000E36E002B18BFB3F1807F76D1624A136DA9
:104EA00023F08073E16E0B431365236813F0804F8A
:104EB00010D0D4F8BC30002B18BFB3F5004F6AD126
:104EC000594B1A6922F400421A611A69D4F8BC10CD
:104ED0000A431A612368002B0FDA636D002B18BF99
:104EE000B3F1805F02D0B3F1005F5AD14E4AD36C68
:104EF00023F04053616D0B43D364236813F4000F18
:104F000011D0D4F88C30002B18BFB3F5800F02D02D
:104F1000B3F5000F4BD1444A536D23F44003D4F84A
:104F20008C100B435365636813F0010F45D1636820
:104F300013F0020F4AD1636813F0040F4FD1636876
:104F400013F0080F54D1636813F0100F59D1636840
:104F500013F0200F5ED106B101263046F8BD0126C0
:104F60006CE7314AD36A43F40033D362D1E62E466C
:104F700064E740F2E5512D48FDF71AF969E740F280
:104F8000EF512A48FDF714F976E740F2F951274826
:104F9000FDF70EF982E740F20F612448FDF708F9AA
:104FA0008EE740F219612148FDF702F99EE740F2D1
:104FB00023611E48FDF7FCF8ADE7002104F108006D
:104FC000FEF778FF0028B2D00646B0E7012104F1D1
:104FD0000800FEF76FFF0028ADD00646ABE70221C0
:104FE00004F10800FEF766FF0028A8D00646A6E7F1
:104FF000002104F12800FFF73DF80028A3D0064661
:10500000A1E7012104F12800FFF734F800289ED021
:1050100006469CE7022104F12800FFF72BF8002840
:1050200099D0064697E700BF004402580C9200084A
:105030002DE9F04383B080460C466B4A6B4B90429F
:1050400018BF984214BF4FF001094FF000092BD050
:1050500003F50063C31A18BF012302F500629042F2
:1050600022D00BB3624BC31A18BF012302F50062B2
:10507000904219D0C3B15F4BC31A18BF012302F588
:105080000062904210D07BB15B4BC31A18BF012362
:1050900002F50062904207D033B1584B984203D0DA
:1050A000B3215748FDF784F823689AB212B1554AE4
:1050B0001A401AB1B4215248FDF77AF86368112BEF
:1050C00018BF012B17D9022B15D0122B13D0B3F513
:1050D000881F10D0B3F5041F0DD0B3F5441F0AD0BC
:1050E000B3F5901F07D0B3F5081F04D0B3F5481FE0
:1050F00001D0032B01D10025C8E0B5214048FDF7C0
:1051000057F8F8E7E368032B17D8D8F808206900A8
:1051100003238B4022EA0302E3688B401343C8F861
:105120000830D8F8042022EA07026368C3F30017A6
:10513000AF401743C8F80470B8E0C4213048FDF709
:1051400037F8E2E7D6212E48FDF732F8B7E0B9F19B
:10515000000F2DD02C4BB8EB030318BF01232B4AB3
:10516000904525D023B3224BB8EB030318BF01238E
:1051700002F5006290451BD0D3B11E4BB8EB030380
:1051800018BF012302F50062904511D083B11A4B7C
:10519000B8EB030318BF012302F50062904507D066
:1051A00033B1164B984503D0E3211548FDF700F8BD
:1051B00023690F2B10D8EA08083258F8220005F0AE
:1051C000070399000F238B4020EA030023698B40DB
:1051D000034348F8223084E0E4210948FCF7E8FF63
:1051E000E9E7092315E000BF000002580004025857
:1051F00000140258001C02580024025800280258CB
:10520000449200080000FFFF000C025800080258FA
:1052100000238B4003430232664941F822304FF0AD
:10522000B0431A68F34322EA0601606810F4801F55
:1052300001D046EA02014FF0B0421160526803EA21
:105240000201606810F4001F01D046EA02014FF02D
:10525000B0425160D2F8842003EA0201606810F481
:10526000003F01D046EA02014FF0B042C2F884107C
:10527000D2F880201340616811F4803F01D046EAE3
:1052800002034FF0B042C2F880300135266836FA8A
:1052900005F300F08C800127AF403E40F5D06368F5
:1052A00003F00303013B012B7FF62CAF636803F08F
:1052B0000303032B0FD0A368022B3FF643AFD8F8AC
:1052C0000C20690003238B4022EA0302A3688B4071
:1052D0001343C8F80C30636803F00303022B3FF458
:1052E00036AFD8F80020690003238B4022EA03027E
:1052F000636803F003038B401343C8F8003063680E
:1053000013F4403FC1D02C4BD3F8F42042F00202FA
:10531000C3F8F420D3F8F43003F002030193019BA7
:10532000AA08911C234B53F8210005F003039900B0
:105330000F238B4020EA0300204B98453FF468AFD1
:1053400003F58063984522D003F58063984520D00B
:1053500003F5806398451ED003F5806398451CD003
:1053600003F5806398451AD003F58063984518D0FB
:1053700003F58063984516D003F58063984514D0F3
:1053800003F5806398453FF42CAF0A2341E70123DE
:105390003FE702233DE703233BE7042339E70523E7
:1053A00037E7062335E7072333E7082331E703B060
:1053B000BDE8F08300040058004402580000025881
:1053C00070B5054614460E4621B1012C08D86CB1C3
:1053D000AE6170BD4FF4D5710648FCF7E9FEF4E705
:1053E00040F2AB110348FCF7E3FEF0E73604AE6190
:1053F000EFE700BF44920008C368016902680B43ED
:10540000D360436982691343C2691343026A134339
:10541000426A1343C26A1343026B1343826A013A1E
:1054200043EA8243816802680B4313614368B3F126
:10543000804F1BD0036800225A61436B93421BDBF1
:1054400002689BB21362836B002B20DB01680A6A3F
:1054500042EA03430B624368B3F1804F24D00268F1
:10546000DBB29362036800225A62704702681369D4
:1054700043F040431361DDE70268536943F480233E
:105480005361436B5B4202689BB21362DBE70268C5
:10549000536943F400235361836B5A4201680B6ADA
:1054A00043EA02430B62D6E7036800229A62D9E717
:1054B00038B5044600F026FB002C00F07881054644
:1054C0002368A449A44A8B4218BF93422DD040328E
:1054D00093422AD04032934227D04032934224D084
:1054E0004032934221D0403293421ED04032934208
:1054F0001BD04032934218D04032934215D04032F4
:10550000934212D0403293420FD0403293420CD09B
:105510004032934209D04032934206D04032934207
:1055200003D0E5218D48FCF743FEE368002B18BF4C
:10553000402B04D0802B02D0C02B40F0DD802369AB
:10554000002B18BFB3F5805F06D0B3F5005F03D022
:10555000B3F5804F40F0D5806368B3F1804F18BF3A
:105560001F2B00F2D3806369002B18BF022B19D0C8
:10557000B3F5817F16D040F20222934212D040F25E
:10558000023293420ED0032B0CD040F2031293420E
:1055900008D040F20322934204D040F203329342F7
:1055A00040F0B980A369002B18BF082B19D0B3F5C0
:1055B000816F16D040F60802934212D040F608429E
:1055C00093420ED00C2B0CD040F20C42934208D0E8
:1055D00040F60C02934204D040F60C42934240F055
:1055E0009F80E369002B18BF102B04D0202B02D022
:1055F000302B40F09A80236A002B18BF402B04D038
:10560000802B02D0C02B40F09580636AB3F1007FFD
:1056100018BF002B06D0B3F1806F03D0B3F1006F39
:1056200040F08D80E36A002B18BFB3F5805F11D086
:10563000B3F5005F0ED0B3F5405F0BD0B3F5804FEC
:1056400008D0B3F5A04F05D0B3F5C04F02D0B3F5E5
:10565000E04F79D1236B002B18BFB3F5004F11D069
:10566000B3F5803F0ED0B3F5C03F0BD0B3F5003F8C
:1056700008D0B3F5203F05D0B3F5403F02D0B3F5D5
:10568000603F6FD1A36A013BFD2B70D8A368002B4C
:1056900018BFB3F1805F05D0B3F1005F02D0B3F162
:1056A000405F69D1626B4FF6FF7313442C4A9342FB
:1056B00067D8A26B4FF6FF731344294A934265D80B
:1056C000002384F83C30022384F83D302268D368FC
:1056D00023F00103D3602368DB6813F0010F5AD075
:1056E00000F010FA401B0528F5D94023A3660323D8
:1056F00084F83D30012059E0E6211848FCF758FDB8
:105700001DE7E7211548FCF753FD25E7E82113487D
:10571000FCF74EFD27E7E9211048FCF749FD41E77A
:10572000EA210E48FCF744FD5BE7EB210B48FCF750
:105730003FFD60E7EC210948FCF73AFD65E7ED2104
:105740000648FCF735FD6DE7EE210448FCF730FD17
:1057500080E700BF40000052800000527C920008A9
:10576000FEFF0100EF211348FCF722FD8AE7F0213C
:105770001048FCF71DFD89E7F1210E48FCF718FDE4
:1057800090E7F2210B48FCF713FD92E7F32109485B
:10579000FCF70EFD94E72046FFF72EFE0020E065A3
:1057A00020666066A066012384F83D3038BD012084
:1057B000FCE700BF7C92000868B3034690F83C0009
:1057C00001282AD0012083F83C0093F83D00C0B2A4
:1057D000012804D00120002283F83C20704730B417
:1057E0001C68256915F0804F09D121631868426350
:1057F00051B919680A6922F000420A6100200022AA
:1058000083F83C2030BC704719680A6942F00042B6
:105810000A610020F3E70120704702207047000072
:1058200030B583B000230193674B1D68674BA3FB22
:1058300005350168664B0B44C3F38413012202FA59
:1058400003F34FF0A44212681A4200F0A580044608
:10585000AD0A0B6813F0010F2FD0CB6813F0020FC5
:105860002BD0CB6823F00203CB600268936813F05F
:10587000800F40F09380816E41F00101816613F446
:10588000007F03D0A16E41F00401A16613F4807F74
:1058900003D0A16E41F00801A16613F4806F03D01C
:1058A000A16E41F01001A16613F4006F03D0A36E46
:1058B00043F02003A3660123536023681A6812F0A3
:1058C000100F09D0DA6812F0200F05D010225A60AC
:1058D000A36C0BB12046984723681A6812F0080F92
:1058E00009D0DA6812F0100F05D008225A60E36C74
:1058F0000BB12046984723681A6812F0040F09D0AC
:10590000DA6812F0080F05D004225A60236D0BB13B
:105910002046984723681A6812F0020F19D0DA68F7
:1059200012F0040F15D0DA6822F03E02DA6094F823
:105930003D30DBB2042B36D0236802225A600023AC
:1059400084F83C30012384F83D30636C0BB1204671
:105950009847A36E03B3042384F83D302268D368CC
:1059600023F00103D360019B01330193AB4204D8C0
:105970002368DB6813F0010FF5D1002384F83C3075
:105980002368DB6813F0010F19D0032384F83D303E
:10599000636D0BB12046984703B030BD816E41F076
:1059A000020181666BE7002384F83C30012384F810
:1059B0003D30A36D002BEFD020469847ECE7012344
:1059C00084F83D30E4E700BF6C000020B5814E1B39
:1059D000C0FFFFAD10B50446431E012B0CD8164B7B
:1059E000DB6813F0040F0DD1134BDB6803F00703E2
:1059F000A3421FD0012010BD4FF4A1710F48FCF746
:105A0000D7FBECE70C4BD86820F007000443DC60C0
:105A100000F078F80446084B5B6813F4005F07D188
:105A200000F070F8001BB0F57A7FF4D90120E2E7AE
:105A30000020E0E70020DEE700480258B4920008AA
:105A4000104B1B780BB90120704710B504464FF47A
:105A50007A70B0FBF3F30C4A1068B0FBF3F0FDF77B
:105A6000D3F968B90F2C01D901200AE000222146A0
:105A70004FF0FF30FDF76CF9044B1C60002000E094
:105A8000012010BD640000206C0000206800002090
:105A900010B50320FDF73EF9FDF7B8FE0F498B69FD
:105AA000C3F303230E4AD35C03F01F03D8408B6972
:105AB00003F00F03D35C03F01F0320FA03F3094A3A
:105AC0001360094B18600F20FFF7BAFF10B10124D3
:105AD000204610BD0446FDF78BF8F9E70044025854
